{
  "_format": "hh-sol-artifact-1",
  "contractName": "RealEstateToken",
  "sourceName": "contracts/RealEstateToken.sol",
  "abi": [
    {
      "inputs": [],
      "stateMutability": "nonpayable",
      "type": "constructor"
    },
    {
      "anonymous": false,
      "inputs": [
        {
          "indexed": true,
          "internalType": "address",
          "name": "owner",
          "type": "address"
        },
        {
          "indexed": true,
          "internalType": "address",
          "name": "approved",
          "type": "address"
        },
        {
          "indexed": true,
          "internalType": "uint256",
          "name": "tokenId",
          "type": "uint256"
        }
      ],
      "name": "Approval",
      "type": "event"
    },
    {
      "anonymous": false,
      "inputs": [
        {
          "indexed": true,
          "internalType": "address",
          "name": "owner",
          "type": "address"
        },
        {
          "indexed": true,
          "internalType": "address",
          "name": "operator",
          "type": "address"
        },
        {
          "indexed": false,
          "internalType": "bool",
          "name": "approved",
          "type": "bool"
        }
      ],
      "name": "ApprovalForAll",
      "type": "event"
    },
    {
      "anonymous": false,
      "inputs": [
        {
          "indexed": false,
          "internalType": "uint256",
          "name": "_fromTokenId",
          "type": "uint256"
        },
        {
          "indexed": false,
          "internalType": "uint256",
          "name": "_toTokenId",
          "type": "uint256"
        }
      ],
      "name": "BatchMetadataUpdate",
      "type": "event"
    },
    {
      "anonymous": false,
      "inputs": [
        {
          "indexed": false,
          "internalType": "uint256",
          "name": "_tokenId",
          "type": "uint256"
        }
      ],
      "name": "MetadataUpdate",
      "type": "event"
    },
    {
      "anonymous": false,
      "inputs": [
        {
          "indexed": true,
          "internalType": "address",
          "name": "previousOwner",
          "type": "address"
        },
        {
          "indexed": true,
          "internalType": "address",
          "name": "newOwner",
          "type": "address"
        }
      ],
      "name": "OwnershipTransferred",
      "type": "event"
    },
    {
      "anonymous": false,
      "inputs": [
        {
          "indexed": true,
          "internalType": "address",
          "name": "from",
          "type": "address"
        },
        {
          "indexed": true,
          "internalType": "address",
          "name": "to",
          "type": "address"
        },
        {
          "indexed": true,
          "internalType": "uint256",
          "name": "tokenId",
          "type": "uint256"
        }
      ],
      "name": "Transfer",
      "type": "event"
    },
    {
      "inputs": [
        {
          "internalType": "address",
          "name": "to",
          "type": "address"
        },
        {
          "internalType": "uint256",
          "name": "tokenId",
          "type": "uint256"
        }
      ],
      "name": "approve",
      "outputs": [],
      "stateMutability": "nonpayable",
      "type": "function"
    },
    {
      "inputs": [
        {
          "internalType": "address",
          "name": "owner",
          "type": "address"
        }
      ],
      "name": "balanceOf",
      "outputs": [
        {
          "internalType": "uint256",
          "name": "",
          "type": "uint256"
        }
      ],
      "stateMutability": "view",
      "type": "function"
    },
    {
      "inputs": [
        {
          "internalType": "uint256",
          "name": "tokenId",
          "type": "uint256"
        }
      ],
      "name": "getApproved",
      "outputs": [
        {
          "internalType": "address",
          "name": "",
          "type": "address"
        }
      ],
      "stateMutability": "view",
      "type": "function"
    },
    {
      "inputs": [
        {
          "internalType": "address",
          "name": "owner",
          "type": "address"
        },
        {
          "internalType": "address",
          "name": "operator",
          "type": "address"
        }
      ],
      "name": "isApprovedForAll",
      "outputs": [
        {
          "internalType": "bool",
          "name": "",
          "type": "bool"
        }
      ],
      "stateMutability": "view",
      "type": "function"
    },
    {
      "inputs": [
        {
          "internalType": "address",
          "name": "to",
          "type": "address"
        },
        {
          "internalType": "string",
          "name": "tokenURI",
          "type": "string"
        }
      ],
      "name": "mintProperty",
      "outputs": [
        {
          "internalType": "uint256",
          "name": "",
          "type": "uint256"
        }
      ],
      "stateMutability": "nonpayable",
      "type": "function"
    },
    {
      "inputs": [],
      "name": "name",
      "outputs": [
        {
          "internalType": "string",
          "name": "",
          "type": "string"
        }
      ],
      "stateMutability": "view",
      "type": "function"
    },
    {
      "inputs": [],
      "name": "owner",
      "outputs": [
        {
          "internalType": "address",
          "name": "",
          "type": "address"
        }
      ],
      "stateMutability": "view",
      "type": "function"
    },
    {
      "inputs": [
        {
          "internalType": "uint256",
          "name": "tokenId",
          "type": "uint256"
        }
      ],
      "name": "ownerOf",
      "outputs": [
        {
          "internalType": "address",
          "name": "",
          "type": "address"
        }
      ],
      "stateMutability": "view",
      "type": "function"
    },
    {
      "inputs": [],
      "name": "renounceOwnership",
      "outputs": [],
      "stateMutability": "nonpayable",
      "type": "function"
    },
    {
      "inputs": [
        {
          "internalType": "address",
          "name": "from",
          "type": "address"
        },
        {
          "internalType": "address",
          "name": "to",
          "type": "address"
        },
        {
          "internalType": "uint256",
          "name": "tokenId",
          "type": "uint256"
        }
      ],
      "name": "safeTransferFrom",
      "outputs": [],
      "stateMutability": "nonpayable",
      "type": "function"
    },
    {
      "inputs": [
        {
          "internalType": "address",
          "name": "from",
          "type": "address"
        },
        {
          "internalType": "address",
          "name": "to",
          "type": "address"
        },
        {
          "internalType": "uint256",
          "name": "tokenId",
          "type": "uint256"
        },
        {
          "internalType": "bytes",
          "name": "data",
          "type": "bytes"
        }
      ],
      "name": "safeTransferFrom",
      "outputs": [],
      "stateMutability": "nonpayable",
      "type": "function"
    },
    {
      "inputs": [
        {
          "internalType": "address",
          "name": "operator",
          "type": "address"
        },
        {
          "internalType": "bool",
          "name": "approved",
          "type": "bool"
        }
      ],
      "name": "setApprovalForAll",
      "outputs": [],
      "stateMutability": "nonpayable",
      "type": "function"
    },
    {
      "inputs": [
        {
          "internalType": "bytes4",
          "name": "interfaceId",
          "type": "bytes4"
        }
      ],
      "name": "supportsInterface",
      "outputs": [
        {
          "internalType": "bool",
          "name": "",
          "type": "bool"
        }
      ],
      "stateMutability": "view",
      "type": "function"
    },
    {
      "inputs": [],
      "name": "symbol",
      "outputs": [
        {
          "internalType": "string",
          "name": "",
          "type": "string"
        }
      ],
      "stateMutability": "view",
      "type": "function"
    },
    {
      "inputs": [],
      "name": "tokenCounter",
      "outputs": [
        {
          "internalType": "uint256",
          "name": "",
          "type": "uint256"
        }
      ],
      "stateMutability": "view",
      "type": "function"
    },
    {
      "inputs": [
        {
          "internalType": "uint256",
          "name": "tokenId",
          "type": "uint256"
        }
      ],
      "name": "tokenURI",
      "outputs": [
        {
          "internalType": "string",
          "name": "",
          "type": "string"
        }
      ],
      "stateMutability": "view",
      "type": "function"
    },
    {
      "inputs": [
        {
          "internalType": "address",
          "name": "from",
          "type": "address"
        },
        {
          "internalType": "address",
          "name": "to",
          "type": "address"
        },
        {
          "internalType": "uint256",
          "name": "tokenId",
          "type": "uint256"
        }
      ],
      "name": "transferFrom",
      "outputs": [],
      "stateMutability": "nonpayable",
      "type": "function"
    },
    {
      "inputs": [
        {
          "internalType": "address",
          "name": "newOwner",
          "type": "address"
        }
      ],
      "name": "transferOwnership",
      "outputs": [],
      "stateMutability": "nonpayable",
      "type": "function"
    }
  ],
  "bytecode": "0x60806040523480156200001157600080fd5b506040518060400160405280600f81526020017f5265616c457374617465546f6b656e00000000000000000000000000000000008152506040518060400160405280600381526020017f524554000000000000000000000000000000000000000000000000000000000081525081600090816200008f91906200041a565b508060019081620000a191906200041a565b505050620000c4620000b8620000d260201b60201c565b620000da60201b60201c565b600060088190555062000501565b600033905090565b6000600760009054906101000a900473ffffffffffffffffffffffffffffffffffffffff16905081600760006101000a81548173ffffffffffffffffffffffffffffffffffffffff021916908373ffffffffffffffffffffffffffffffffffffffff1602179055508173ffffffffffffffffffffffffffffffffffffffff168173ffffffffffffffffffffffffffffffffffffffff167f8be0079c531659141344cd1fd0a4f28419497f9722a3daafe3b4186f6b6457e060405160405180910390a35050565b600081519050919050565b7f4e487b7100000000000000000000000000000000000000000000000000000000600052604160045260246000fd5b7f4e487b7100000000000000000000000000000000000000000000000000000000600052602260045260246000fd5b600060028204905060018216806200022257607f821691505b602082108103620002385762000237620001da565b5b50919050565b60008190508160005260206000209050919050565b60006020601f8301049050919050565b600082821b905092915050565b600060088302620002a27fffffffffffffffffffffffffffffffffffffffffffffffffffffffffffffffff8262000263565b620002ae868362000263565b95508019841693508086168417925050509392505050565b6000819050919050565b6000819050919050565b6000620002fb620002f5620002ef84620002c6565b620002d0565b620002c6565b9050919050565b6000819050919050565b6200031783620002da565b6200032f620003268262000302565b84845462000270565b825550505050565b600090565b6200034662000337565b620003538184846200030c565b505050565b5b818110156200037b576200036f6000826200033c565b60018101905062000359565b5050565b601f821115620003ca5762000394816200023e565b6200039f8462000253565b81016020851015620003af578190505b620003c7620003be8562000253565b83018262000358565b50505b505050565b600082821c905092915050565b6000620003ef60001984600802620003cf565b1980831691505092915050565b60006200040a8383620003dc565b9150826002028217905092915050565b6200042582620001a0565b67ffffffffffffffff811115620004415762000440620001ab565b5b6200044d825462000209565b6200045a8282856200037f565b600060209050601f8311600181146200049257600084156200047d578287015190505b620004898582620003fc565b865550620004f9565b601f198416620004a2866200023e565b60005b82811015620004cc57848901518255600182019150602085019450602081019050620004a5565b86831015620004ec5784890151620004e8601f891682620003dc565b8355505b6001600288020188555050505b505050505050565b612f5280620005116000396000f3fe608060405234801561001057600080fd5b50600436106101165760003560e01c8063715018a6116100a2578063b88d4fde11610071578063b88d4fde146102df578063c87b56dd146102fb578063d082e3811461032b578063e985e9c514610349578063f2fde38b1461037957610116565b8063715018a61461027d5780638da5cb5b1461028757806395d89b41146102a5578063a22cb465146102c357610116565b8063177dc17f116100e9578063177dc17f146101b557806323b872dd146101e557806342842e0e146102015780636352211e1461021d57806370a082311461024d57610116565b806301ffc9a71461011b57806306fdde031461014b578063081812fc14610169578063095ea7b314610199575b600080fd5b61013560048036038101906101309190611ccc565b610395565b6040516101429190611d14565b60405180910390f35b6101536103f6565b6040516101609190611dbf565b60405180910390f35b610183600480360381019061017e9190611e17565b610488565b6040516101909190611e85565b60405180910390f35b6101b360048036038101906101ae9190611ecc565b6104ce565b005b6101cf60048036038101906101ca9190612041565b6105e5565b6040516101dc91906120ac565b60405180910390f35b6101ff60048036038101906101fa91906120c7565b61062c565b005b61021b600480360381019061021691906120c7565b61068c565b005b61023760048036038101906102329190611e17565b6106ac565b6040516102449190611e85565b60405180910390f35b6102676004803603810190610262919061211a565b610732565b60405161027491906120ac565b60405180910390f35b6102856107e9565b005b61028f6107fd565b60405161029c9190611e85565b60405180910390f35b6102ad610827565b6040516102ba9190611dbf565b60405180910390f35b6102dd60048036038101906102d89190612173565b6108b9565b005b6102f960048036038101906102f49190612254565b6108cf565b005b61031560048036038101906103109190611e17565b610931565b6040516103229190611dbf565b60405180910390f35b610333610a43565b60405161034091906120ac565b60405180910390f35b610363600480360381019061035e91906122d7565b610a49565b6040516103709190611d14565b60405180910390f35b610393600480360381019061038e919061211a565b610add565b005b6000634906490660e01b7bffffffffffffffffffffffffffffffffffffffffffffffffffffffff1916827bffffffffffffffffffffffffffffffffffffffffffffffffffffffff191614806103ef57506103ee82610b60565b5b9050919050565b60606000805461040590612346565b80601f016020809104026020016040519081016040528092919081815260200182805461043190612346565b801561047e5780601f106104535761010080835404028352916020019161047e565b820191906000526020600020905b81548152906001019060200180831161046157829003601f168201915b5050505050905090565b600061049382610c42565b6004600083815260200190815260200160002060009054906101000a900473ffffffffffffffffffffffffffffffffffffffff169050919050565b60006104d9826106ac565b90508073ffffffffffffffffffffffffffffffffffffffff168373ffffffffffffffffffffffffffffffffffffffff1603610549576040517f08c379a0000000000000000000000000000000000000000000000000000000008152600401610540906123e9565b60405180910390fd5b8073ffffffffffffffffffffffffffffffffffffffff16610568610c8d565b73ffffffffffffffffffffffffffffffffffffffff161480610597575061059681610591610c8d565b610a49565b5b6105d6576040517f08c379a00000000000000000000000000000000000000000000000000000000081526004016105cd9061247b565b60405180910390fd5b6105e08383610c95565b505050565b60006105ef610d4e565b600060085490506106008482610dcc565b61060a8184610dea565b6008600081548092919061061d906124ca565b91905055508091505092915050565b61063d610637610c8d565b82610e8e565b61067c576040517f08c379a000000000000000000000000000000000000000000000000000000000815260040161067390612584565b60405180910390fd5b610687838383610f23565b505050565b6106a7838383604051806020016040528060008152506108cf565b505050565b6000806106b88361121c565b9050600073ffffffffffffffffffffffffffffffffffffffff168173ffffffffffffffffffffffffffffffffffffffff1603610729576040517f08c379a0000000000000000000000000000000000000000000000000000000008152600401610720906125f0565b60405180910390fd5b80915050919050565b60008073ffffffffffffffffffffffffffffffffffffffff168273ffffffffffffffffffffffffffffffffffffffff16036107a2576040517f08c379a000000000000000000000000000000000000000000000000000000000815260040161079990612682565b60405180910390fd5b600360008373ffffffffffffffffffffffffffffffffffffffff1673ffffffffffffffffffffffffffffffffffffffff168152602001908152602001600020549050919050565b6107f1610d4e565b6107fb6000611259565b565b6000600760009054906101000a900473ffffffffffffffffffffffffffffffffffffffff16905090565b60606001805461083690612346565b80601f016020809104026020016040519081016040528092919081815260200182805461086290612346565b80156108af5780601f10610884576101008083540402835291602001916108af565b820191906000526020600020905b81548152906001019060200180831161089257829003601f168201915b5050505050905090565b6108cb6108c4610c8d565b838361131f565b5050565b6108e06108da610c8d565b83610e8e565b61091f576040517f08c379a000000000000000000000000000000000000000000000000000000000815260040161091690612584565b60405180910390fd5b61092b8484848461148b565b50505050565b606061093c82610c42565b600060066000848152602001908152602001600020805461095c90612346565b80601f016020809104026020016040519081016040528092919081815260200182805461098890612346565b80156109d55780601f106109aa576101008083540402835291602001916109d5565b820191906000526020600020905b8154815290600101906020018083116109b857829003601f168201915b5050505050905060006109e66114e7565b905060008151036109fb578192505050610a3e565b600082511115610a30578082604051602001610a189291906126de565b60405160208183030381529060405292505050610a3e565b610a39846114fe565b925050505b919050565b60085481565b6000600560008473ffffffffffffffffffffffffffffffffffffffff1673ffffffffffffffffffffffffffffffffffffffff16815260200190815260200160002060008373ffffffffffffffffffffffffffffffffffffffff1673ffffffffffffffffffffffffffffffffffffffff16815260200190815260200160002060009054906101000a900460ff16905092915050565b610ae5610d4e565b600073ffffffffffffffffffffffffffffffffffffffff168173ffffffffffffffffffffffffffffffffffffffff1603610b54576040517f08c379a0000000000000000000000000000000000000000000000000000000008152600401610b4b90612774565b60405180910390fd5b610b5d81611259565b50565b60007f80ac58cd000000000000000000000000000000000000000000000000000000007bffffffffffffffffffffffffffffffffffffffffffffffffffffffff1916827bffffffffffffffffffffffffffffffffffffffffffffffffffffffff19161480610c2b57507f5b5e139f000000000000000000000000000000000000000000000000000000007bffffffffffffffffffffffffffffffffffffffffffffffffffffffff1916827bffffffffffffffffffffffffffffffffffffffffffffffffffffffff1916145b80610c3b5750610c3a82611566565b5b9050919050565b610c4b816115d0565b610c8a576040517f08c379a0000000000000000000000000000000000000000000000000000000008152600401610c81906125f0565b60405180910390fd5b50565b600033905090565b816004600083815260200190815260200160002060006101000a81548173ffffffffffffffffffffffffffffffffffffffff021916908373ffffffffffffffffffffffffffffffffffffffff160217905550808273ffffffffffffffffffffffffffffffffffffffff16610d08836106ac565b73ffffffffffffffffffffffffffffffffffffffff167f8c5be1e5ebec7d5bd14f71427d1e84f3dd0314c0f7b2291e5b200ac8c7c3b92560405160405180910390a45050565b610d56610c8d565b73ffffffffffffffffffffffffffffffffffffffff16610d746107fd565b73ffffffffffffffffffffffffffffffffffffffff1614610dca576040517f08c379a0000000000000000000000000000000000000000000000000000000008152600401610dc1906127e0565b60405180910390fd5b565b610de6828260405180602001604052806000815250611611565b5050565b610df3826115d0565b610e32576040517f08c379a0000000000000000000000000000000000000000000000000000000008152600401610e2990612872565b60405180910390fd5b80600660008481526020019081526020016000209081610e529190612a3e565b507ff8e1a15aba9398e019f0b49df1a4fde98ee17ae345cb5f6b5e2c27f5033e8ce782604051610e8291906120ac565b60405180910390a15050565b600080610e9a836106ac565b90508073ffffffffffffffffffffffffffffffffffffffff168473ffffffffffffffffffffffffffffffffffffffff161480610edc5750610edb8185610a49565b5b80610f1a57508373ffffffffffffffffffffffffffffffffffffffff16610f0284610488565b73ffffffffffffffffffffffffffffffffffffffff16145b91505092915050565b8273ffffffffffffffffffffffffffffffffffffffff16610f43826106ac565b73ffffffffffffffffffffffffffffffffffffffff1614610f99576040517f08c379a0000000000000000000000000000000000000000000000000000000008152600401610f9090612b82565b60405180910390fd5b600073ffffffffffffffffffffffffffffffffffffffff168273ffffffffffffffffffffffffffffffffffffffff1603611008576040517f08c379a0000000000000000000000000000000000000000000000000000000008152600401610fff90612c14565b60405180910390fd5b611015838383600161166c565b8273ffffffffffffffffffffffffffffffffffffffff16611035826106ac565b73ffffffffffffffffffffffffffffffffffffffff161461108b576040517f08c379a000000000000000000000000000000000000000000000000000000000815260040161108290612b82565b60405180910390fd5b6004600082815260200190815260200160002060006101000a81549073ffffffffffffffffffffffffffffffffffffffff02191690556001600360008573ffffffffffffffffffffffffffffffffffffffff1673ffffffffffffffffffffffffffffffffffffffff168152602001908152602001600020600082825403925050819055506001600360008473ffffffffffffffffffffffffffffffffffffffff1673ffffffffffffffffffffffffffffffffffffffff16815260200190815260200160002060008282540192505081905550816002600083815260200190815260200160002060006101000a81548173ffffffffffffffffffffffffffffffffffffffff021916908373ffffffffffffffffffffffffffffffffffffffff160217905550808273ffffffffffffffffffffffffffffffffffffffff168473ffffffffffffffffffffffffffffffffffffffff167fddf252ad1be2c89b69c2b068fc378daa952ba7f163c4a11628f55a4df523b3ef60405160405180910390a46112178383836001611672565b505050565b60006002600083815260200190815260200160002060009054906101000a900473ffffffffffffffffffffffffffffffffffffffff169050919050565b6000600760009054906101000a900473ffffffffffffffffffffffffffffffffffffffff16905081600760006101000a81548173ffffffffffffffffffffffffffffffffffffffff021916908373ffffffffffffffffffffffffffffffffffffffff1602179055508173ffffffffffffffffffffffffffffffffffffffff168173ffffffffffffffffffffffffffffffffffffffff167f8be0079c531659141344cd1fd0a4f28419497f9722a3daafe3b4186f6b6457e060405160405180910390a35050565b8173ffffffffffffffffffffffffffffffffffffffff168373ffffffffffffffffffffffffffffffffffffffff160361138d576040517f08c379a000000000000000000000000000000000000000000000000000000000815260040161138490612c80565b60405180910390fd5b80600560008573ffffffffffffffffffffffffffffffffffffffff1673ffffffffffffffffffffffffffffffffffffffff16815260200190815260200160002060008473ffffffffffffffffffffffffffffffffffffffff1673ffffffffffffffffffffffffffffffffffffffff16815260200190815260200160002060006101000a81548160ff0219169083151502179055508173ffffffffffffffffffffffffffffffffffffffff168373ffffffffffffffffffffffffffffffffffffffff167f17307eab39ab6107e8899845ad3d59bd9653f200f220920489ca2b5937696c318360405161147e9190611d14565b60405180910390a3505050565b611496848484610f23565b6114a284848484611678565b6114e1576040517f08c379a00000000000000000000000000000000000000000000000000000000081526004016114d890612d12565b60405180910390fd5b50505050565b606060405180602001604052806000815250905090565b606061150982610c42565b60006115136114e7565b90506000815111611533576040518060200160405280600081525061155e565b8061153d846117ff565b60405160200161154e9291906126de565b6040516020818303038152906040525b915050919050565b60007f01ffc9a7000000000000000000000000000000000000000000000000000000007bffffffffffffffffffffffffffffffffffffffffffffffffffffffff1916827bffffffffffffffffffffffffffffffffffffffffffffffffffffffff1916149050919050565b60008073ffffffffffffffffffffffffffffffffffffffff166115f28361121c565b73ffffffffffffffffffffffffffffffffffffffff1614159050919050565b61161b83836118cd565b6116286000848484611678565b611667576040517f08c379a000000000000000000000000000000000000000000000000000000000815260040161165e90612d12565b60405180910390fd5b505050565b50505050565b50505050565b60006116998473ffffffffffffffffffffffffffffffffffffffff16611aea565b156117f2578373ffffffffffffffffffffffffffffffffffffffff1663150b7a026116c2610c8d565b8786866040518563ffffffff1660e01b81526004016116e49493929190612d87565b6020604051808303816000875af192505050801561172057506040513d601f19601f8201168201806040525081019061171d9190612de8565b60015b6117a2573d8060008114611750576040519150601f19603f3d011682016040523d82523d6000602084013e611755565b606091505b50600081510361179a576040517f08c379a000000000000000000000000000000000000000000000000000000000815260040161179190612d12565b60405180910390fd5b805181602001fd5b63150b7a0260e01b7bffffffffffffffffffffffffffffffffffffffffffffffffffffffff1916817bffffffffffffffffffffffffffffffffffffffffffffffffffffffff1916149150506117f7565b600190505b949350505050565b60606000600161180e84611b0d565b01905060008167ffffffffffffffff81111561182d5761182c611f16565b5b6040519080825280601f01601f19166020018201604052801561185f5781602001600182028036833780820191505090505b509050600082602001820190505b6001156118c2578080600190039150507f3031323334353637383961626364656600000000000000000000000000000000600a86061a8153600a85816118b6576118b5612e15565b5b0494506000850361186d575b819350505050919050565b600073ffffffffffffffffffffffffffffffffffffffff168273ffffffffffffffffffffffffffffffffffffffff160361193c576040517f08c379a000000000000000000000000000000000000000000000000000000000815260040161193390612e90565b60405180910390fd5b611945816115d0565b15611985576040517f08c379a000000000000000000000000000000000000000000000000000000000815260040161197c90612efc565b60405180910390fd5b61199360008383600161166c565b61199c816115d0565b156119dc576040517f08c379a00000000000000000000000000000000000000000000000000000000081526004016119d390612efc565b60405180910390fd5b6001600360008473ffffffffffffffffffffffffffffffffffffffff1673ffffffffffffffffffffffffffffffffffffffff16815260200190815260200160002060008282540192505081905550816002600083815260200190815260200160002060006101000a81548173ffffffffffffffffffffffffffffffffffffffff021916908373ffffffffffffffffffffffffffffffffffffffff160217905550808273ffffffffffffffffffffffffffffffffffffffff16600073ffffffffffffffffffffffffffffffffffffffff167fddf252ad1be2c89b69c2b068fc378daa952ba7f163c4a11628f55a4df523b3ef60405160405180910390a4611ae6600083836001611672565b5050565b6000808273ffffffffffffffffffffffffffffffffffffffff163b119050919050565b600080600090507a184f03e93ff9f4daa797ed6e38ed64bf6a1f0100000000000000008310611b6b577a184f03e93ff9f4daa797ed6e38ed64bf6a1f0100000000000000008381611b6157611b60612e15565b5b0492506040810190505b6d04ee2d6d415b85acef81000000008310611ba8576d04ee2d6d415b85acef81000000008381611b9e57611b9d612e15565b5b0492506020810190505b662386f26fc100008310611bd757662386f26fc100008381611bcd57611bcc612e15565b5b0492506010810190505b6305f5e1008310611c00576305f5e1008381611bf657611bf5612e15565b5b0492506008810190505b6127108310611c25576127108381611c1b57611c1a612e15565b5b0492506004810190505b60648310611c485760648381611c3e57611c3d612e15565b5b0492506002810190505b600a8310611c57576001810190505b80915050919050565b6000604051905090565b600080fd5b600080fd5b60007fffffffff0000000000000000000000000000000000000000000000000000000082169050919050565b611ca981611c74565b8114611cb457600080fd5b50565b600081359050611cc681611ca0565b92915050565b600060208284031215611ce257611ce1611c6a565b5b6000611cf084828501611cb7565b91505092915050565b60008115159050919050565b611d0e81611cf9565b82525050565b6000602082019050611d296000830184611d05565b92915050565b600081519050919050565b600082825260208201905092915050565b60005b83811015611d69578082015181840152602081019050611d4e565b60008484015250505050565b6000601f19601f8301169050919050565b6000611d9182611d2f565b611d9b8185611d3a565b9350611dab818560208601611d4b565b611db481611d75565b840191505092915050565b60006020820190508181036000830152611dd98184611d86565b905092915050565b6000819050919050565b611df481611de1565b8114611dff57600080fd5b50565b600081359050611e1181611deb565b92915050565b600060208284031215611e2d57611e2c611c6a565b5b6000611e3b84828501611e02565b91505092915050565b600073ffffffffffffffffffffffffffffffffffffffff82169050919050565b6000611e6f82611e44565b9050919050565b611e7f81611e64565b82525050565b6000602082019050611e9a6000830184611e76565b92915050565b611ea981611e64565b8114611eb457600080fd5b50565b600081359050611ec681611ea0565b92915050565b60008060408385031215611ee357611ee2611c6a565b5b6000611ef185828601611eb7565b9250506020611f0285828601611e02565b9150509250929050565b600080fd5b600080fd5b7f4e487b7100000000000000000000000000000000000000000000000000000000600052604160045260246000fd5b611f4e82611d75565b810181811067ffffffffffffffff82111715611f6d57611f6c611f16565b5b80604052505050565b6000611f80611c60565b9050611f8c8282611f45565b919050565b600067ffffffffffffffff821115611fac57611fab611f16565b5b611fb582611d75565b9050602081019050919050565b82818337600083830152505050565b6000611fe4611fdf84611f91565b611f76565b90508281526020810184848401111561200057611fff611f11565b5b61200b848285611fc2565b509392505050565b600082601f83011261202857612027611f0c565b5b8135612038848260208601611fd1565b91505092915050565b6000806040838503121561205857612057611c6a565b5b600061206685828601611eb7565b925050602083013567ffffffffffffffff81111561208757612086611c6f565b5b61209385828601612013565b9150509250929050565b6120a681611de1565b82525050565b60006020820190506120c1600083018461209d565b92915050565b6000806000606084860312156120e0576120df611c6a565b5b60006120ee86828701611eb7565b93505060206120ff86828701611eb7565b925050604061211086828701611e02565b9150509250925092565b6000602082840312156121305761212f611c6a565b5b600061213e84828501611eb7565b91505092915050565b61215081611cf9565b811461215b57600080fd5b50565b60008135905061216d81612147565b92915050565b6000806040838503121561218a57612189611c6a565b5b600061219885828601611eb7565b92505060206121a98582860161215e565b9150509250929050565b600067ffffffffffffffff8211156121ce576121cd611f16565b5b6121d782611d75565b9050602081019050919050565b60006121f76121f2846121b3565b611f76565b90508281526020810184848401111561221357612212611f11565b5b61221e848285611fc2565b509392505050565b600082601f83011261223b5761223a611f0c565b5b813561224b8482602086016121e4565b91505092915050565b6000806000806080858703121561226e5761226d611c6a565b5b600061227c87828801611eb7565b945050602061228d87828801611eb7565b935050604061229e87828801611e02565b925050606085013567ffffffffffffffff8111156122bf576122be611c6f565b5b6122cb87828801612226565b91505092959194509250565b600080604083850312156122ee576122ed611c6a565b5b60006122fc85828601611eb7565b925050602061230d85828601611eb7565b9150509250929050565b7f4e487b7100000000000000000000000000000000000000000000000000000000600052602260045260246000fd5b6000600282049050600182168061235e57607f821691505b60208210810361237157612370612317565b5b50919050565b7f4552433732313a20617070726f76616c20746f2063757272656e74206f776e6560008201527f7200000000000000000000000000000000000000000000000000000000000000602082015250565b60006123d3602183611d3a565b91506123de82612377565b604082019050919050565b60006020820190508181036000830152612402816123c6565b9050919050565b7f4552433732313a20617070726f76652063616c6c6572206973206e6f7420746f60008201527f6b656e206f776e6572206f7220617070726f76656420666f7220616c6c000000602082015250565b6000612465603d83611d3a565b915061247082612409565b604082019050919050565b6000602082019050818103600083015261249481612458565b9050919050565b7f4e487b7100000000000000000000000000000000000000000000000000000000600052601160045260246000fd5b60006124d582611de1565b91507fffffffffffffffffffffffffffffffffffffffffffffffffffffffffffffffff82036125075761250661249b565b5b600182019050919050565b7f4552433732313a2063616c6c6572206973206e6f7420746f6b656e206f776e6560008201527f72206f7220617070726f76656400000000000000000000000000000000000000602082015250565b600061256e602d83611d3a565b915061257982612512565b604082019050919050565b6000602082019050818103600083015261259d81612561565b9050919050565b7f4552433732313a20696e76616c696420746f6b656e2049440000000000000000600082015250565b60006125da601883611d3a565b91506125e5826125a4565b602082019050919050565b60006020820190508181036000830152612609816125cd565b9050919050565b7f4552433732313a2061646472657373207a65726f206973206e6f74206120766160008201527f6c6964206f776e65720000000000000000000000000000000000000000000000602082015250565b600061266c602983611d3a565b915061267782612610565b604082019050919050565b6000602082019050818103600083015261269b8161265f565b9050919050565b600081905092915050565b60006126b882611d2f565b6126c281856126a2565b93506126d2818560208601611d4b565b80840191505092915050565b60006126ea82856126ad565b91506126f682846126ad565b91508190509392505050565b7f4f776e61626c653a206e6577206f776e657220697320746865207a65726f206160008201527f6464726573730000000000000000000000000000000000000000000000000000602082015250565b600061275e602683611d3a565b915061276982612702565b604082019050919050565b6000602082019050818103600083015261278d81612751565b9050919050565b7f4f776e61626c653a2063616c6c6572206973206e6f7420746865206f776e6572600082015250565b60006127ca602083611d3a565b91506127d582612794565b602082019050919050565b600060208201905081810360008301526127f9816127bd565b9050919050565b7f45524337323155524953746f726167653a2055524920736574206f66206e6f6e60008201527f6578697374656e7420746f6b656e000000000000000000000000000000000000602082015250565b600061285c602e83611d3a565b915061286782612800565b604082019050919050565b6000602082019050818103600083015261288b8161284f565b9050919050565b60008190508160005260206000209050919050565b60006020601f8301049050919050565b600082821b905092915050565b6000600883026128f47fffffffffffffffffffffffffffffffffffffffffffffffffffffffffffffffff826128b7565b6128fe86836128b7565b95508019841693508086168417925050509392505050565b6000819050919050565b600061293b61293661293184611de1565b612916565b611de1565b9050919050565b6000819050919050565b61295583612920565b61296961296182612942565b8484546128c4565b825550505050565b600090565b61297e612971565b61298981848461294c565b505050565b5b818110156129ad576129a2600082612976565b60018101905061298f565b5050565b601f8211156129f2576129c381612892565b6129cc846128a7565b810160208510156129db578190505b6129ef6129e7856128a7565b83018261298e565b50505b505050565b600082821c905092915050565b6000612a15600019846008026129f7565b1980831691505092915050565b6000612a2e8383612a04565b9150826002028217905092915050565b612a4782611d2f565b67ffffffffffffffff811115612a6057612a5f611f16565b5b612a6a8254612346565b612a758282856129b1565b600060209050601f831160018114612aa85760008415612a96578287015190505b612aa08582612a22565b865550612b08565b601f198416612ab686612892565b60005b82811015612ade57848901518255600182019150602085019450602081019050612ab9565b86831015612afb5784890151612af7601f891682612a04565b8355505b6001600288020188555050505b505050505050565b7f4552433732313a207472616e736665722066726f6d20696e636f72726563742060008201527f6f776e6572000000000000000000000000000000000000000000000000000000602082015250565b6000612b6c602583611d3a565b9150612b7782612b10565b604082019050919050565b60006020820190508181036000830152612b9b81612b5f565b9050919050565b7f4552433732313a207472616e7366657220746f20746865207a65726f2061646460008201527f7265737300000000000000000000000000000000000000000000000000000000602082015250565b6000612bfe602483611d3a565b9150612c0982612ba2565b604082019050919050565b60006020820190508181036000830152612c2d81612bf1565b9050919050565b7f4552433732313a20617070726f766520746f2063616c6c657200000000000000600082015250565b6000612c6a601983611d3a565b9150612c7582612c34565b602082019050919050565b60006020820190508181036000830152612c9981612c5d565b9050919050565b7f4552433732313a207472616e7366657220746f206e6f6e20455243373231526560008201527f63656976657220696d706c656d656e7465720000000000000000000000000000602082015250565b6000612cfc603283611d3a565b9150612d0782612ca0565b604082019050919050565b60006020820190508181036000830152612d2b81612cef565b9050919050565b600081519050919050565b600082825260208201905092915050565b6000612d5982612d32565b612d638185612d3d565b9350612d73818560208601611d4b565b612d7c81611d75565b840191505092915050565b6000608082019050612d9c6000830187611e76565b612da96020830186611e76565b612db6604083018561209d565b8181036060830152612dc88184612d4e565b905095945050505050565b600081519050612de281611ca0565b92915050565b600060208284031215612dfe57612dfd611c6a565b5b6000612e0c84828501612dd3565b91505092915050565b7f4e487b7100000000000000000000000000000000000000000000000000000000600052601260045260246000fd5b7f4552433732313a206d696e7420746f20746865207a65726f2061646472657373600082015250565b6000612e7a602083611d3a565b9150612e8582612e44565b602082019050919050565b60006020820190508181036000830152612ea981612e6d565b9050919050565b7f4552433732313a20746f6b656e20616c7265616479206d696e74656400000000600082015250565b6000612ee6601c83611d3a565b9150612ef182612eb0565b602082019050919050565b60006020820190508181036000830152612f1581612ed9565b905091905056fea2646970667358221220ea3b52f0ce8fa3c555125fbecc251e544380db84a4417f0f830335c26a70f29864736f6c63430008110033",
  "linkReferences": {},
  "deployedLinkReferences": {}
}